{
  "_format": "hh-sol-artifact-1",
  "contractName": "Campaign",
  "sourceName": "contracts/Campaign.sol",
  "abi": [
    {
      "inputs": [
        {
          "internalType": "uint32",
          "name": "_startTime",
          "type": "uint32"
        },
        {
          "internalType": "uint32",
          "name": "_endTime",
          "type": "uint32"
        },
        {
          "internalType": "address",
          "name": "_token",
          "type": "address"
        },
        {
          "internalType": "address",
          "name": "_lendingPool",
          "type": "address"
        },
        {
          "internalType": "address",
          "name": "_beneficiaryWallet",
          "type": "address"
        },
        {
          "internalType": "string",
          "name": "_metadataUrl",
          "type": "string"
        }
      ],
      "stateMutability": "nonpayable",
      "type": "constructor"
    },
    {
      "anonymous": false,
      "inputs": [
        {
          "indexed": false,
          "internalType": "uint256",
          "name": "reward",
          "type": "uint256"
        }
      ],
      "name": "CampaignEnded",
      "type": "event"
    },
    {
      "anonymous": false,
      "inputs": [
        {
          "indexed": true,
          "internalType": "address",
          "name": "who",
          "type": "address"
        },
        {
          "indexed": false,
          "internalType": "uint256",
          "name": "amount",
          "type": "uint256"
        }
      ],
      "name": "Donated",
      "type": "event"
    },
    {
      "inputs": [
        {
          "internalType": "uint256",
          "name": "amount",
          "type": "uint256"
        }
      ],
      "name": "donate",
      "outputs": [],
      "stateMutability": "nonpayable",
      "type": "function"
    },
    {
      "inputs": [
        {
          "internalType": "address",
          "name": "",
          "type": "address"
        }
      ],
      "name": "donorsToDonation",
      "outputs": [
        {
          "internalType": "uint256",
          "name": "",
          "type": "uint256"
        }
      ],
      "stateMutability": "view",
      "type": "function"
    },
    {
      "inputs": [],
      "name": "endCampaing",
      "outputs": [],
      "stateMutability": "nonpayable",
      "type": "function"
    },
    {
      "inputs": [],
      "name": "forceEnd",
      "outputs": [],
      "stateMutability": "nonpayable",
      "type": "function"
    },
    {
      "inputs": [],
      "name": "giveAllMyFoundsBack",
      "outputs": [],
      "stateMutability": "nonpayable",
      "type": "function"
    },
    {
      "inputs": [
        {
          "internalType": "uint256",
          "name": "amount",
          "type": "uint256"
        }
      ],
      "name": "giveMyFoundsBack",
      "outputs": [],
      "stateMutability": "nonpayable",
      "type": "function"
    },
    {
      "inputs": [],
      "name": "info",
      "outputs": [
        {
          "internalType": "uint32",
          "name": "startTime",
          "type": "uint32"
        },
        {
          "internalType": "uint32",
          "name": "endTime",
          "type": "uint32"
        },
        {
          "internalType": "address",
          "name": "beneficiaryWallet",
          "type": "address"
        },
        {
          "internalType": "uint256",
          "name": "donationPool",
          "type": "uint256"
        },
        {
          "internalType": "uint256",
          "name": "collectedReward",
          "type": "uint256"
        },
        {
          "internalType": "uint256",
          "name": "additionalPassedFounds",
          "type": "uint256"
        },
        {
          "internalType": "string",
          "name": "metadataUrl",
          "type": "string"
        }
      ],
      "stateMutability": "view",
      "type": "function"
    },
    {
      "inputs": [],
      "name": "lendingPool",
      "outputs": [
        {
          "internalType": "contract ILendingPool",
          "name": "",
          "type": "address"
        }
      ],
      "stateMutability": "view",
      "type": "function"
    },
    {
      "inputs": [
        {
          "internalType": "uint256",
          "name": "toCharity",
          "type": "uint256"
        }
      ],
      "name": "splitMyFounds",
      "outputs": [],
      "stateMutability": "nonpayable",
      "type": "function"
    },
    {
      "inputs": [],
      "name": "token",
      "outputs": [
        {
          "internalType": "contract IERC20",
          "name": "",
          "type": "address"
        }
      ],
      "stateMutability": "view",
      "type": "function"
    },
    {
      "inputs": [],
      "name": "transferAllMyFoundsToCharity",
      "outputs": [],
      "stateMutability": "nonpayable",
      "type": "function"
    }
  ],
  "bytecode": "0x60806040523480156200001157600080fd5b506040516200204338038062002043833981810160405281019062000037919062000548565b85600260000160006101000a81548163ffffffff021916908363ffffffff16021790555084600260000160046101000a81548163ffffffff021916908363ffffffff16021790555081600260000160086101000a81548173ffffffffffffffffffffffffffffffffffffffff021916908373ffffffffffffffffffffffffffffffffffffffff1602179055508060026004019080519060200190620000de92919062000255565b5083600060016101000a81548173ffffffffffffffffffffffffffffffffffffffff021916908373ffffffffffffffffffffffffffffffffffffffff16021790555082600160006101000a81548173ffffffffffffffffffffffffffffffffffffffff021916908373ffffffffffffffffffffffffffffffffffffffff160217905550600060019054906101000a900473ffffffffffffffffffffffffffffffffffffffff1673ffffffffffffffffffffffffffffffffffffffff1663095ea7b3600160009054906101000a900473ffffffffffffffffffffffffffffffffffffffff167fffffffffffffffffffffffffffffffffffffffffffffffffffffffffffffffff6040518363ffffffff1660e01b8152600401620002029291906200062f565b6020604051808303816000875af115801562000222573d6000803e3d6000fd5b505050506040513d601f19601f8201168201806040525081019062000248919062000699565b5050505050505062000730565b8280546200026390620006fa565b90600052602060002090601f016020900481019282620002875760008555620002d3565b82601f10620002a257805160ff1916838001178555620002d3565b82800160010185558215620002d3579182015b82811115620002d2578251825591602001919060010190620002b5565b5b509050620002e29190620002e6565b5090565b5b8082111562000301576000816000905550600101620002e7565b5090565b6000604051905090565b600080fd5b600080fd5b600063ffffffff82169050919050565b620003348162000319565b81146200034057600080fd5b50565b600081519050620003548162000329565b92915050565b600073ffffffffffffffffffffffffffffffffffffffff82169050919050565b600062000387826200035a565b9050919050565b62000399816200037a565b8114620003a557600080fd5b50565b600081519050620003b9816200038e565b92915050565b600080fd5b600080fd5b6000601f19601f8301169050919050565b7f4e487b7100000000000000000000000000000000000000000000000000000000600052604160045260246000fd5b6200041482620003c9565b810181811067ffffffffffffffff82111715620004365762000435620003da565b5b80604052505050565b60006200044b62000305565b905062000459828262000409565b919050565b600067ffffffffffffffff8211156200047c576200047b620003da565b5b6200048782620003c9565b9050602081019050919050565b60005b83811015620004b457808201518184015260208101905062000497565b83811115620004c4576000848401525b50505050565b6000620004e1620004db846200045e565b6200043f565b9050828152602081018484840111156200050057620004ff620003c4565b5b6200050d84828562000494565b509392505050565b600082601f8301126200052d576200052c620003bf565b5b81516200053f848260208601620004ca565b91505092915050565b60008060008060008060c087890312156200056857620005676200030f565b5b60006200057889828a0162000343565b96505060206200058b89828a0162000343565b95505060406200059e89828a01620003a8565b9450506060620005b189828a01620003a8565b9350506080620005c489828a01620003a8565b92505060a087015167ffffffffffffffff811115620005e857620005e762000314565b5b620005f689828a0162000515565b9150509295509295509295565b6200060e816200037a565b82525050565b6000819050919050565b620006298162000614565b82525050565b600060408201905062000646600083018562000603565b6200065560208301846200061e565b9392505050565b60008115159050919050565b62000673816200065c565b81146200067f57600080fd5b50565b600081519050620006938162000668565b92915050565b600060208284031215620006b257620006b16200030f565b5b6000620006c28482850162000682565b91505092915050565b7f4e487b7100000000000000000000000000000000000000000000000000000000600052602260045260246000fd5b600060028204905060018216806200071357607f821691505b602082108114156200072a5762000729620006cb565b5b50919050565b61190380620007406000396000f3fe608060405234801561001057600080fd5b50600436106100a95760003560e01c8063a59a997311610071578063a59a997314610132578063aad2baf514610150578063e24d0b811461016c578063f14faf6f14610176578063f8b5b9b814610192578063fc0c546a1461019c576100a9565b8063370158ea146100ae5780634ee0ab0d146100d257806369a35974146100dc5780636e9481411461010c578063884fd1c614610128575b600080fd5b6100b66101ba565b6040516100c9979695949392919061115b565b60405180910390f35b6100da6102b2565b005b6100f660048036038101906100f19190611202565b61049a565b604051610103919061122f565b60405180910390f35b61012660048036038101906101219190611276565b6104b2565b005b610130610722565b005b61013a61076c565b6040516101479190611302565b60405180910390f35b61016a60048036038101906101659190611276565b610792565b005b610174610af3565b005b610190600480360381019061018b9190611276565b610b3d565b005b61019a610ddd565b005b6101a4611023565b6040516101b1919061133e565b60405180910390f35b60028060000160009054906101000a900463ffffffff16908060000160049054906101000a900463ffffffff16908060000160089054906101000a900473ffffffffffffffffffffffffffffffffffffffff169080600101549080600201549080600301549080600401805461022f90611388565b80601f016020809104026020016040519081016040528092919081815260200182805461025b90611388565b80156102a85780601f1061027d576101008083540402835291602001916102a8565b820191906000526020600020905b81548152906001019060200180831161028b57829003601f168201915b5050505050905087565b6000600160009054906101000a900473ffffffffffffffffffffffffffffffffffffffff1673ffffffffffffffffffffffffffffffffffffffff166369328dec600060019054906101000a900473ffffffffffffffffffffffffffffffffffffffff167fffffffffffffffffffffffffffffffffffffffffffffffffffffffffffffffff306040518463ffffffff1660e01b8152600401610355939291906113ba565b6020604051808303816000875af1158015610374573d6000803e3d6000fd5b505050506040513d601f19601f820116820180604052508101906103989190611406565b9050600260010154816103ab9190611462565b6002800181905550600060019054906101000a900473ffffffffffffffffffffffffffffffffffffffff1673ffffffffffffffffffffffffffffffffffffffff1663a9059cbb600260000160089054906101000a900473ffffffffffffffffffffffffffffffffffffffff1660028001546040518363ffffffff1660e01b8152600401610439929190611496565b6020604051808303816000875af1158015610458573d6000803e3d6000fd5b505050506040513d601f19601f8201168201806040525081019061047c91906114f7565b5060016000806101000a81548160ff02191690831515021790555050565b60076020528060005260406000206000915090505481565b600760003373ffffffffffffffffffffffffffffffffffffffff1673ffffffffffffffffffffffffffffffffffffffff16815260200190815260200160002054811115610534576040517f08c379a000000000000000000000000000000000000000000000000000000000815260040161052b90611596565b60405180910390fd5b60008054906101000a900460ff1661060c57600160009054906101000a900473ffffffffffffffffffffffffffffffffffffffff1673ffffffffffffffffffffffffffffffffffffffff166369328dec600060019054906101000a900473ffffffffffffffffffffffffffffffffffffffff1683306040518463ffffffff1660e01b81526004016105c7939291906113ba565b6020604051808303816000875af11580156105e6573d6000803e3d6000fd5b505050506040513d601f19601f8201168201806040525081019061060a9190611406565b505b600060019054906101000a900473ffffffffffffffffffffffffffffffffffffffff1673ffffffffffffffffffffffffffffffffffffffff1663a9059cbb33836040518363ffffffff1660e01b8152600401610669929190611496565b6020604051808303816000875af1158015610688573d6000803e3d6000fd5b505050506040513d601f19601f820116820180604052508101906106ac91906114f7565b5080600260010160008282546106c29190611462565b9250508190555080600760003373ffffffffffffffffffffffffffffffffffffffff1673ffffffffffffffffffffffffffffffffffffffff16815260200190815260200160002060008282546107189190611462565b9250508190555050565b61076a600760003373ffffffffffffffffffffffffffffffffffffffff1673ffffffffffffffffffffffffffffffffffffffff168152602001908152602001600020546104b2565b565b600160009054906101000a900473ffffffffffffffffffffffffffffffffffffffff1681565b600760003373ffffffffffffffffffffffffffffffffffffffff1673ffffffffffffffffffffffffffffffffffffffff16815260200190815260200160002054811115610814576040517f08c379a000000000000000000000000000000000000000000000000000000000815260040161080b90611628565b60405180910390fd5b60008054906101000a900460ff16610861576040517f08c379a000000000000000000000000000000000000000000000000000000000815260040161085890611694565b60405180910390fd5b600060019054906101000a900473ffffffffffffffffffffffffffffffffffffffff1673ffffffffffffffffffffffffffffffffffffffff1663a9059cbb600260000160089054906101000a900473ffffffffffffffffffffffffffffffffffffffff16836040518363ffffffff1660e01b81526004016108e3929190611496565b6020604051808303816000875af1158015610902573d6000803e3d6000fd5b505050506040513d601f19601f8201168201806040525081019061092691906114f7565b50600081600760003373ffffffffffffffffffffffffffffffffffffffff1673ffffffffffffffffffffffffffffffffffffffff168152602001908152602001600020546109749190611462565b90506000811115610a2157600060019054906101000a900473ffffffffffffffffffffffffffffffffffffffff1673ffffffffffffffffffffffffffffffffffffffff1663a9059cbb33836040518363ffffffff1660e01b81526004016109dc929190611496565b6020604051808303816000875af11580156109fb573d6000803e3d6000fd5b505050506040513d601f19601f82011682018060405250810190610a1f91906114f7565b505b600760003373ffffffffffffffffffffffffffffffffffffffff1673ffffffffffffffffffffffffffffffffffffffff1681526020019081526020016000205460026001016000828254610a759190611462565b925050819055506000600760003373ffffffffffffffffffffffffffffffffffffffff1673ffffffffffffffffffffffffffffffffffffffff1681526020019081526020016000206000828254610acc9190611462565b925050819055508160026003016000828254610ae891906116b4565b925050819055505050565b610b3b600760003373ffffffffffffffffffffffffffffffffffffffff1673ffffffffffffffffffffffffffffffffffffffff16815260200190815260200160002054610792565b565b600260000160009054906101000a900463ffffffff1663ffffffff164210158015610b825750600260000160049054906101000a900463ffffffff1663ffffffff1642105b610bc1576040517f08c379a0000000000000000000000000000000000000000000000000000000008152600401610bb89061177c565b60405180910390fd5b600060019054906101000a900473ffffffffffffffffffffffffffffffffffffffff1673ffffffffffffffffffffffffffffffffffffffff166323b872dd3330846040518463ffffffff1660e01b8152600401610c209392919061179c565b6020604051808303816000875af1158015610c3f573d6000803e3d6000fd5b505050506040513d601f19601f82011682018060405250810190610c6391906114f7565b50600160009054906101000a900473ffffffffffffffffffffffffffffffffffffffff1673ffffffffffffffffffffffffffffffffffffffff1663e8eda9df600060019054906101000a900473ffffffffffffffffffffffffffffffffffffffff16833060006040518563ffffffff1660e01b8152600401610ce8949392919061181c565b600060405180830381600087803b158015610d0257600080fd5b505af1158015610d16573d6000803e3d6000fd5b505050508060026001016000828254610d2f91906116b4565b9250508190555080600760003373ffffffffffffffffffffffffffffffffffffffff1673ffffffffffffffffffffffffffffffffffffffff1681526020019081526020016000206000828254610d8591906116b4565b925050819055503373ffffffffffffffffffffffffffffffffffffffff167f2a01595cddf097c90216094025db714da3f4e5bd8877b56ba86a24ecead8e54382604051610dd2919061122f565b60405180910390a250565b600260000160049054906101000a900463ffffffff1663ffffffff16421015610e3b576040517f08c379a0000000000000000000000000000000000000000000000000000000008152600401610e32906118ad565b60405180910390fd5b6000600160009054906101000a900473ffffffffffffffffffffffffffffffffffffffff1673ffffffffffffffffffffffffffffffffffffffff166369328dec600060019054906101000a900473ffffffffffffffffffffffffffffffffffffffff167fffffffffffffffffffffffffffffffffffffffffffffffffffffffffffffffff306040518463ffffffff1660e01b8152600401610ede939291906113ba565b6020604051808303816000875af1158015610efd573d6000803e3d6000fd5b505050506040513d601f19601f82011682018060405250810190610f219190611406565b905060026001015481610f349190611462565b6002800181905550600060019054906101000a900473ffffffffffffffffffffffffffffffffffffffff1673ffffffffffffffffffffffffffffffffffffffff1663a9059cbb600260000160089054906101000a900473ffffffffffffffffffffffffffffffffffffffff1660028001546040518363ffffffff1660e01b8152600401610fc2929190611496565b6020604051808303816000875af1158015610fe1573d6000803e3d6000fd5b505050506040513d601f19601f8201168201806040525081019061100591906114f7565b5060016000806101000a81548160ff02191690831515021790555050565b600060019054906101000a900473ffffffffffffffffffffffffffffffffffffffff1681565b600063ffffffff82169050919050565b61106281611049565b82525050565b600073ffffffffffffffffffffffffffffffffffffffff82169050919050565b600061109382611068565b9050919050565b6110a381611088565b82525050565b6000819050919050565b6110bc816110a9565b82525050565b600081519050919050565b600082825260208201905092915050565b60005b838110156110fc5780820151818401526020810190506110e1565b8381111561110b576000848401525b50505050565b6000601f19601f8301169050919050565b600061112d826110c2565b61113781856110cd565b93506111478185602086016110de565b61115081611111565b840191505092915050565b600060e082019050611170600083018a611059565b61117d6020830189611059565b61118a604083018861109a565b61119760608301876110b3565b6111a460808301866110b3565b6111b160a08301856110b3565b81810360c08301526111c38184611122565b905098975050505050505050565b600080fd5b6111df81611088565b81146111ea57600080fd5b50565b6000813590506111fc816111d6565b92915050565b600060208284031215611218576112176111d1565b5b6000611226848285016111ed565b91505092915050565b600060208201905061124460008301846110b3565b92915050565b611253816110a9565b811461125e57600080fd5b50565b6000813590506112708161124a565b92915050565b60006020828403121561128c5761128b6111d1565b5b600061129a84828501611261565b91505092915050565b6000819050919050565b60006112c86112c36112be84611068565b6112a3565b611068565b9050919050565b60006112da826112ad565b9050919050565b60006112ec826112cf565b9050919050565b6112fc816112e1565b82525050565b600060208201905061131760008301846112f3565b92915050565b6000611328826112cf565b9050919050565b6113388161131d565b82525050565b6000602082019050611353600083018461132f565b92915050565b7f4e487b7100000000000000000000000000000000000000000000000000000000600052602260045260246000fd5b600060028204905060018216806113a057607f821691505b602082108114156113b4576113b3611359565b5b50919050565b60006060820190506113cf600083018661109a565b6113dc60208301856110b3565b6113e9604083018461109a565b949350505050565b6000815190506114008161124a565b92915050565b60006020828403121561141c5761141b6111d1565b5b600061142a848285016113f1565b91505092915050565b7f4e487b7100000000000000000000000000000000000000000000000000000000600052601160045260246000fd5b600061146d826110a9565b9150611478836110a9565b92508282101561148b5761148a611433565b5b828203905092915050565b60006040820190506114ab600083018561109a565b6114b860208301846110b3565b9392505050565b60008115159050919050565b6114d4816114bf565b81146114df57600080fd5b50565b6000815190506114f1816114cb565b92915050565b60006020828403121561150d5761150c6111d1565b5b600061151b848285016114e2565b91505092915050565b7f596f7520646f6e61746564206c657373207468616e20796f752077616e74207460008201527f6f20676574206261636b00000000000000000000000000000000000000000000602082015250565b6000611580602a836110cd565b915061158b82611524565b604082019050919050565b600060208201905081810360008301526115af81611573565b9050919050565b7f596f7527766520646f6e616e746564206c657373207468616e20796f7520776160008201527f6e7420746f2073706c6974000000000000000000000000000000000000000000602082015250565b6000611612602b836110cd565b915061161d826115b6565b604082019050919050565b6000602082019050818103600083015261164181611605565b9050919050565b7f5468652063616d706169676e206861736e27742065646e656420796574000000600082015250565b600061167e601d836110cd565b915061168982611648565b602082019050919050565b600060208201905081810360008301526116ad81611671565b9050919050565b60006116bf826110a9565b91506116ca836110a9565b9250827fffffffffffffffffffffffffffffffffffffffffffffffffffffffffffffffff038211156116ff576116fe611433565b5b828201905092915050565b7f5468652063616d706169676e206973206e6f7420696e742070726f677265737360008201527f2e00000000000000000000000000000000000000000000000000000000000000602082015250565b60006117666021836110cd565b91506117718261170a565b604082019050919050565b6000602082019050818103600083015261179581611759565b9050919050565b60006060820190506117b1600083018661109a565b6117be602083018561109a565b6117cb60408301846110b3565b949350505050565b6000819050919050565b600061ffff82169050919050565b60006118066118016117fc846117d3565b6112a3565b6117dd565b9050919050565b611816816117eb565b82525050565b6000608082019050611831600083018761109a565b61183e60208301866110b3565b61184b604083018561109a565b611858606083018461180d565b95945050505050565b7f5468652063616d706169676e206861736e277420656e646564207965742e0000600082015250565b6000611897601e836110cd565b91506118a282611861565b602082019050919050565b600060208201905081810360008301526118c68161188a565b905091905056fea2646970667358221220776bf4574e5f551a51e8844aacbc38c1b400f2923a742f5db0f212a46e71752464736f6c634300080b0033",
  "linkReferences": {},
  "deployedLinkReferences": {}
}